:1000000027C1000037C1000035C1000033C1000026
:1000100031C100002FC100002DC100002BC1000024
:1000200029C1000027C1000025C1000023C1000034
:1000300021C100001FC100001DC100001BC1000044
:1000400019C1000017C1000015C1000013C1000054
:1000500011C100000FC100000DC100003AC3000033
:1000600009C1000007C1000005C1000003C1000074
:1000700001C10000FFC00000FDC00000FBC0000087
:10008000F9C00000F7C00000F5C00000F3C0000098
:10009000F1C00000EFC00000EDC00000EBC00000A8
:1000A000E9C00000E7C00000E5C00000E3C00000B8
:1000B000E1C00000DFC00000DDC00000DBC00000C8
:1000C000D9C00000D7C00000D5C00000D3C00000D8
:1000D000D1C00000CFC00000CDC00000CBC00000E8
:1000E000C9C000005501580147014B0151018F0162
:1000F0005C01600166016A016E01740178017C0196
:100100008F01820186018A016102720286029402D5
:10011000A502B002B502BA02BC02CA02EA02FB02A0
:100120000F031D032E0339033E034303450353030B
:10013000000020002300260029002C002F003200A0
:100140000001000003010601090100002100240054
:1001500027002A002D0030003300010100000401B7
:1001600007010A0100002200250028002B002E00B4
:100170003100340002010000050108010B010505F2
:100180000505070508080808020202020A0A08080D
:10019000040404040101010101010101030303033B
:1001A00003030303040707070C0C0C0C0C0C0C0CCA
:1001B0000202020206060606060606060B0B0B0BDB
:1001C0000B0B0B0B01021020200808102040102000
:1001D000408002010201080402010102040810200B
:1001E0004080804020100804020180040201804009
:1001F0002010080402010804020101020408102072
:100200004080010204081020408000000A0B02090F
:100210000C0D0E08070304010000000000000000A0
:1002200000000000000000000000000000000000CE
:10023000000000000000121110000000000000008B
:1002400000000000000000000000000000000000AE
:1002500011241FBECFEFD1E2DEBFCDBF00E00CBF47
:1002600022E0A0E0B2E001C01D92A930B207E1F7A0
:100270007AD207C4C5CE90E0FC013197E231F10596
:1002800008F04DC08827EE58FF4F8F4FF2C3809182
:1002900080008F7703C0809180008F7D80938000E5
:1002A000089580918000877FF9CF84B58F7702C051
:1002B00084B58F7D84BD08958091B0008F7703C091
:1002C0008091B0008F7D8093B00008958091900060
:1002D0008F7707C0809190008F7D03C08091900040
:1002E000877F8093900008958091A0008F7707C04A
:1002F0008091A0008F7D03C08091A000877F8093B4
:10030000A0000895809120018F7707C0809120017F
:100310008F7D03C080912001877F80932001089505
:100320001F93CF93DF93282F30E0F901E65FFD4F55
:100330008491F901EC53FE4FD491F901E258FE4F3C
:10034000C491CC23B9F0162F811195DFEC2FF0E08A
:10035000EE0FFF1FEC59FE4FA591B4919FB7F89493
:10036000111104C08C91D095D82302C0EC91DE2BE2
:10037000DC939FBFDF91CF911F910895CF93DF93BF
:1003800090E0FC01EC53FE4F2491FC01E258FE4F3B
:100390008491882361F190E0880F991FFC01E65B4E
:1003A000FE4FC591D491FC01EC59FE4FA591B4913B
:1003B000611109C09FB7F8948881209582238883B2
:1003C000EC912E230BC0623061F49FB7F8948881C2
:1003D000322F309583238883EC912E2B2C939FBF53
:1003E00006C08FB7F894E8812E2B28838FBFDF914A
:1003F000CF9108953FB7F89480910502909106023D
:10040000A0910702B091080226B5A89B05C02F3F16
:1004100019F00196A11DB11D3FBFBA2FA92F982F2A
:100420008827820F911DA11DB11DBC01CD0142E0A5
:10043000660F771F881F991F4A95D1F708958F92ED
:100440009F92AF92BF92CF92DF92EF92FF926B0199
:100450007C01D0DF4B015C01C114D104E104F10443
:10046000E9F0C8DFDC01CB0188199909AA09BB09A9
:10047000883E9340A105B10578F321E0C21AD10866
:10048000E108F10888EE880E83E0981EA11CB11CDB
:10049000C114D104E104F10421F7DECFFF90EF9005
:1004A000DF90CF90BF90AF909F908F9008958A304B
:1004B000910508F084C0FC018827EC57FF4F8F4F4F
:1004C000D8C261E08FE12CDF61E080E229DF61E0EA
:1004D00081E226DF61E082E223DF61E083E220DF68
:1004E00061E010C060E08FE11BDF61E080E218DFB7
:1004F00061E081E215DF60E082E212DF60E083E22A
:100500000FDF60E084E20CDF60E057C061E08FE164
:1005100007DF61E080E204DF60E081E201DF61E0AB
:1005200082E2FEDE61E00DC061E08FE1F9DE61E0B4
:1005300080E2F6DE61E081E2F3DE61E082E2F0DE9D
:1005400060E083E2EDDE60E035C060E08FE1E8DE90
:1005500061E080E2E5DE61E081E2E2DE60E024C0AD
:1005600061E08FE1DDDE60E019C061E08FE1D8DE9F
:1005700060E006C061E0B7CF61E08FE1D1DE61E00D
:1005800080E2CEDE61E081E2CBDE61E082E2C8DEC5
:1005900061E00DC061E08FE1C3DE61E080E2C0DEBA
:1005A00061E081E2BDDE61E082E2BADE60E083E22A
:1005B000B7DE61E084E2B4DE61E085E2B1CE0895A9
:1005C0008A30910508F084C0FC018827E257FF4F6C
:1005D0008F4F4FC261E086E1A3DE61E087E1A0DEDC
:1005E00061E088E19DDE61E089E19ADE61E08AE117
:1005F00097DE61E010C060E086E192DE61E087E1B5
:100600008FDE61E088E18CDE60E089E189DE60E018
:100610008AE186DE60E08BE183DE60E057C061E066
:1006200086E17EDE61E087E17BDE60E088E178DE06
:1006300061E089E175DE61E00DC061E086E170DEB8
:1006400061E087E16DDE61E088E16ADE61E089E119
:1006500067DE60E08AE164DE60E035C060E086E18C
:100660005FDE61E087E15CDE61E088E159DE60E049
:1006700024C061E086E154DE60E019C061E086E1FB
:100680004FDE60E006C061E0B7CF61E086E148DEA2
:1006900061E087E145DE61E088E142DE61E089E119
:1006A0003FDE61E00DC061E086E13ADE61E087E1B6
:1006B00037DE61E088E134DE61E089E131DE60E06F
:1006C0008AE12EDE61E08BE12BDE61E08CE128CE59
:1006D00008951F920F920FB60F9211242F933F93FC
:1006E0008F939F93AF93BF938091010290910202E9
:1006F000A0910302B09104023091000223E0230F85
:100700002D3720F40196A11DB11D05C026E8230F49
:100710000296A11DB11D20930002809301029093C7
:100720000202A0930302B09304028091050290910B
:100730000602A0910702B09108020196A11DB11D09
:100740008093050290930602A0930702B0930802DB
:10075000BF91AF919F918F913F912F910F900FBEBD
:100760000F901F901895789484B5826084BD84B5ED
:10077000816084BD85B5826085BD85B5816085BD9C
:1007800080916E00816080936E0010928100809154
:1007900081008260809381008091810081608093DC
:1007A0008100809180008160809380008091B10001
:1007B00084608093B1008091B00081608093B0002C
:1007C000809191008260809391008091910081607E
:1007D000809391008091900081608093900080913F
:1007E000A10082608093A1008091A100816080932C
:1007F000A1008091A00081608093A00080912101E0
:100800008260809321018091210181608093210188
:100810008091200181608093200180917A00846022
:1008200080937A0080917A00826080937A00809130
:100830007A00816080937A0080917A00806880934A
:100840007A001092C10060E08DE098DD61E08CE0FC
:1008500095DD61E08BE092DD61E08AE08FDD61E0B3
:100860008CE05EDD60E08BE05BDD60E08AE058DD1F
:1008700061E081E083DD61E082E080DD61E083E0D2
:100880007DDD61E086E17ADD61E087E177DD61E0D1
:1008900088E174DD61E089E171DD61E08AE16EDDAE
:1008A00061E08BE16BDD61E08CE168DD61E08FE1AF
:1008B00065DD61E080E262DD61E081E25FDD61E0F3
:1008C00082E25CDD61E083E259DD61E084E256DDD5
:1008D00061E085E253DD60E08CE022DD61E08BE0E9
:1008E0001FDD60E08AE01CDDC7E1D2E001ED11E030
:1008F0004BE8E42E41E0F42E50E0C52E50E0D52E1A
:10090000FE018491F801A490F701B490BB2051F14D
:100910008111B1DCEB2DF0E0EE0FFF1FE05DFE4F2B
:10092000A591B4918C918A21E9F060E083E0F8DC34
:1009300061E082E0F5DC60E081E0F2DC68EE73E02B
:1009400080E090E07CDD60E083E0EADC60E082E073
:10095000E7DC60E081E0E4DC68EE73E080E090E0FA
:100960006EDDE3CF60E083E0DBDC60E082E0D8DCDA
:1009700061E081E0D5DCAA24A394B12CC50120DE7E
:1009800029E0822E912CC40192DD68EE73E080E0B4
:1009900090E055DDF1E08F1A9108A8F7E1E0AE1A7A
:1009A000B10860F760E083E0BBDC61E082E0B8DCC6
:1009B00061E081E0B5DC68EE73E080E090E03FDD6F
:1009C00061E083E0ADDC60E082E0AADC60E081E031
:1009D000A7DC80E090E0F4DD99E0A92EB12CC50100
:1009E00066DD68EE73E080E090E029DD81E0A81A22
:1009F000B108A8F760E083E093DC61E082E090DC7E
:100A000060E081E08DDC60E086E18ADC60E087E127
:100A100087DC60E088E184DC60E089E181DC60E023
:100A20008AE17EDC60E08BE17BDC60E08CE178DCFD
:100A300060E08FE175DC60E080E272DC60E081E222
:100A40006FDC60E082E26CDC60E083E269DC60E045
:100A500084E266DC60E085E263DC68EE73E080E0FF
:100A600090E0EDDCC114D10409F44ACF0E940000EB
:100A700047CFEE0FFF1F881F8BBF0790F691E02D29
:060A80001994F894FFCF69
:00000001FF
